:020000040000FA
:04000000C1EF3FF01D
:107F82000001C4EF3FF0959E959C959A9598938E2B
:107F9200938C938A938881B8D1EF3FF0D3EF3FF06F
:107FA200D6EF3FF08C88D7EF3FF08C9881BADCEFA8
:107FB2003FF0DEEF3FF0E1EF3FF08C8AE2EF3FF07F
:107FC2008C9A81BCE7EF3FF0E9EF3FF0ECEF3FF036
:107FD2008C8CEDEF3FF08C9C81BEF2EF3FF0F4EF22
:107FE2003FF0F7EF3FF08C8ECCEF3FF08C9ECCEF62
:0E7FF2003FF0CCEF3FF0CCEF3FF000EF00F09F
:020000040020DA
:08000000FFFFFFFFFFFFFFFF00
:020000040030CA
:0E000000000C181EFF0181FF0FC00FE00F4023
:00000001FF
