:020000040000FA
:1000000059EF00F0046A036EE86A0306045AD8A0A8
:1000100056EF00F0030E026EE50E02D8F5D7026A25
:10002000F70F016EFE0E04E300D000D00126D8A029
:100030000206FCE2040001A002D000D000D01200B1
:10004000066A056A100E076E02340536063603503E
:10005000055E0450065A05E20350052604500622A8
:10006000D89001360236072EEFD7015056EF00F038
:1000700003500702F3CF05F0F4CF06F00450080256
:10008000F3CF01F0F4CF02F00702F3500626F4504C
:100090000122E86A022203500802F3500626F450B7
:1000A0000122E86A0222055056EF00F00001040028
:1000B0001200936A816A1C6A010E1A6E1B6A010E95
:1000C0001C6E0400090E1C5CD8B07BEF00F01AC057
:1000D00081FF010E046EF40E96DF1AC007F01BC0FC
:1000E00008F0020E036E046AC3DF1A6E06C01BF02E
:1000F0001C2AD8A0E6D71C6A400E1A6E1B6A010E95
:100100001C6E0400080E1C5CD8B093EF00F01AC0FF
:1001100081FF010E046EF40E76DFD8901B321A3286
:100120001C2AD8A0EED7020E1A6E1B6AC8D703008D
:02013000FED7F8
:020000040030CA
:08000000E43EFFF3FFF99BFF52
:00000001FF
