:020000040000FA
:1000000024EF00F0046A036EE86A0306045AD8A0DD
:1000100021EF00F0030E026EE40E02D8F5D7026A5B
:10002000F50F016EFE0E04E300D004000126FDE290
:10003000000001260206F9E201A002D000D0000073
:1000400012000001040012009368816A816A010EA7
:10005000046EF40ED8DF010E816E010E046EF40EF4
:10006000D2DF030E816E010E046EF40ECCDF070E9C
:10007000816E010E046EF40EC6DF0F0E816E010E4E
:10008000046EF40EC0DF1F0E816E010E046EF40EBE
:10009000BADF3F0E816E010E046EF40EB4DF7F0EE8
:1000A000816E010E046EF40EAEDF8168010E046EE7
:0A00B000F40EA9DFCBD70300FED742
:020000040030CA
:08000000E43EFFF3FFF99BFF52
:00000001FF
