:020000040000FA
:1000000041EF00F0046A036EE86A0306045AD8A0C0
:100010003EEF00F0030E026EE50E02D8F5D7026A3D
:10002000F70F016EFE0E04E300D000D00126D8A029
:100030000206FCE2040001A002D000D000D01200B1
:1000400003500702F3CF05F0F4CF06F00450080286
:10005000F3CF01F0F4CF02F00702F3500626F4507C
:100060000122E86A022203500802F3500626F450E7
:100070000122E86A022205503EEF00F00001040070
:100080001200936A816A1A6A010E1B6E010E1A6EC3
:100090000400090E1A5CD8B05FEF00F01BC081FFAE
:1000A000010E046EF40EAFDF1BC007F0086A020EEB
:1000B000036E046AC5DF1B6E1A2AD8A0E9D7010EA9
:0800C0001B6EE4D70300FED71C
:020000040030CA
:08000000E43EFFF3FFF99BFF52
:00000001FF
