:020000040000FA
:0400000027EF3CF0BA
:107849000100000001490EF66E780EF76E000EF881
:107859006E00EE0CF010EE05F00900F5CFEEFFE535
:1078690050E150FAE1000EF86E00013CEF3CF000E7
:107879000E956E000E8C6E938E938CF19E45EF3CA7
:10788900F081BE4AEF3CF04CEF3CF077EF3CF082E0
:107899000E0A6EDE0EE82EFED70A2EFCD7102A0538
:1078A9000E1018D8A45BEF3CF05DEF3CF077EF3C8D
:1078B900F0010E106E77EF3CF077EF3CF077EF3C7C
:1078C900F09AEC3CF045EF3CF030EC3EF045EF3CF3
:1078D900F065EC3DF045EF3CF00FEC3FF045EF3C37
:1078E900F045EF3CF010500A6E0B6A0B50000AD8B5
:1078F900B481EF3CF045EF3CF00A50010AD8B46579
:10790900EF3CF0030AD8B469EF3CF0010AD8B46D32
:10791900EF3CF0070AD8B471EF3CF045EF3CF04575
:10792900EF3CF045EF3CF000EF00F0000E046E0074
:107939000E036E04BEAAEF3CF0045009E1080E03E1
:107949005CD8A0AAEF3CF0ACEF3CF0B0EF3CF0649F
:10795900EF3DF064EF3DF003C001F0010E026E014E
:107969002AB9EF3CF0D8900236012EB7EF3CF0026D
:10797900508C6E0C040D100E100F10D8A4C7EF3CDC
:10798900F0C9EF3CF0D2EF3CF0820E016EDE0EE85A
:107999002EFED7012EFCD726EF3DF0020E0C180D56
:1079A900100E100F10D8A4DCEF3CF0DEEF3CF0EC29
:1079B900EF3CF0020E026E040E016EBA0EE82EFEC6
:1079C900D7012EFCD7022EFAD700D026EF3DF003BF
:1079D9000E0C180D100E100F10D8A4F6EF3CF0F88D
:1079E900EF3CF006EF3DF0030E026E080E016E77D4
:1079F9000EE82EFED7012EFCD7022EFAD700F0266C
:107A0900EF3DF0040E0C180D100E100F10D8A41035
:107A1900EF3DF012EF3DF026EF3DF0050E026E0F3F
:107A29000E016EF10EE82EFED7012EFCD7022EFABA
:107A3900D700F026EF3DF026EF3DF026EF3DF0268A
:107A4900EF3DF081BC2BEF3DF02DEF3DF052EF3DC6
:107A5900F0820E016EDE0EE82EFED7012EFCD70154
:107A69000E0C26000E0D220E220F22050E0C180DEB
:107A7900100E100F10D8A444EF3DF046EF3DF05220
:107A8900EF3DF0010E0C6E000E0D6E000E0E6E0035
:107A99000E0F6E52EF3DF052EF3DF0034A042A04F7
:107AA900BE60EF3DF0045009E1080E035CD8A06008
:107AB900EF3DF062EF3DF0B0EF3CF064EF3DF012C6
:107AC90000000E046E000E036E04BE75EF3DF00457
:107AD9005009E1090E035CD8A075EF3DF077EF3D41
:107AE900F07BEF3DF02FEF3EF02FEF3EF003C001AA
:107AF900F0010E026E012A84EF3DF0D890023601A2
:107B09002E82EF3DF002048C6E0C040D100E100F46
:107B190010D8A492EF3DF094EF3DF09DEF3DF08237
:107B29000E016EDE0EE82EFED7012EFCD7F1EF3DD9
:107B3900F0020E0C180D100E100F10D8A4A7EF3D6F
:107B4900F0A9EF3DF0B7EF3DF0020E026E040E0111
:107B59006EBA0EE82EFED7012EFCD7022EFAD700F8
:107B6900D0F1EF3DF0030E0C180D100E100F10D8C8
:107B7900A4C1EF3DF0C3EF3DF0D1EF3DF0030E029C
:107B89006E080E016E770EE82EFED7012EFCD70285
:107B99002EFAD700F0F1EF3DF0040E0C180D100E7F
:107BA900100F10D8A4DBEF3DF0DDEF3DF0F1EF3D14
:107BB900F0050E026E0F0E016EF10EE82EFED701D2
:107BC9002EFCD7022EFAD700F0F1EF3DF0F1EF3D90
:107BD900F0F1EF3DF0F1EF3DF081BCF6EF3DF0F84B
:107BE900EF3DF01DEF3EF0820E016EDE0EE82EFE37
:107BF900D7012EFCD7010E0C26000E0D220E220FE6
:107C090022050E0C180D100E100F10D8A40FEF3E00
:107C1900F011EF3EF01DEF3EF0010E0C6E000E0D5F
:107C29006E000E0E6E000E0F6E1DEF3EF01DEF3E44
:107C3900F0034A042A04BE2BEF3EF0045009E1097F
:107C49000E035CD8A02BEF3EF02DEF3EF07BEF3D0D
:107C5900F02FEF3EF01200000E086E000E076E00C6
:107C69000E066E070E056E08BE44EF3EF008500979
:107C7900E1080E075CD8A044EF3EF046EF3EF04A1B
:107C8900EF3EF00EEF3FF00EEF3FF005C001F001BF
:107C99000E026E012A53EF3EF0D8900236012E51A2
:107CA900EF3EF007C003F0010E046E032A5FEF3EBA
:107CB900F0D8900436032E5DEF3EF0045002248C78
:107CC9006E0C040D100E100F10D8A46EEF3EF0705C
:107CD900EF3EF079EF3EF0820E016EDE0EE82EFEE9
:107CE900D7012EFCD7CDEF3EF0020E0C180D100E69
:107CF900100F10D8A483EF3EF085EF3EF093EF3ECE
:107D0900F0020E026E040E016EBA0EE82EFED701C5
:107D19002EFCD7022EFAD700D0CDEF3EF0030E0C81
:107D2900180D100E100F10D8A49DEF3EF09FEF3ED6
:107D3900F0ADEF3EF0030E026E080E016E770EE80D
:107D49002EFED7012EFCD7022EFAD700F0CDEF3E3A
:107D5900F0040E0C180D100E100F10D8A4B7EF3E3A
:107D6900F0B9EF3EF0CDEF3EF0050E026E0F0E01B9
:107D79006EF10EE82EFED7012EFCD7022EFAD7009F
:107D8900F0CDEF3EF0CDEF3EF0CDEF3EF0CDEF3E42
:107D9900F081BCD2EF3EF0D4EF3EF0F9EF3EF08235
:107DA9000E016EDE0EE82EFED7012EFCD7010E0C59
:107DB90026000E0D220E220F22050E0C180D100E94
:107DC900100F10D8A4EBEF3EF0EDEF3EF0F9EF3EC7
:107DD900F0010E0C6E000E0D6E000E0E6E000E0FF1
:107DE9006EF9EF3EF0F9EF3EF0074A082A0506D88A
:107DF900A0060608BE0AEF3FF0085009E1080E0781
:107E09005CD8A00AEF3FF00CEF3FF04AEF3EF00ECE
:107E1900EF3FF01200000E076E000E066E000E090D
:107E29006E000E086E000E056E000E046E05BE276C
:107E3900EF3FF0055009E1050E045CD8A027EF3F9C
:107E4900F029EF3FF02DEF3FF0FFEF3FF0FFEF3F5D
:107E5900F0065008248C6E04C001F0010E026E0079
:107E69000E036E012A3CEF3FF0D89002360336012B
:107E79002E39EF3FF0025006260350072204500026
:107E890008016E070E0126010E026E000E036E0137
:107E99002A52EF3FF0D89002360336012E4FEF3FBA
:107EA900F002500826035009220C040D100E100F81
:107EB90010D8A462EF3FF064EF3FF06DEF3FF0821E
:107EC9000E016EDE0EE82EFED7012EFCD7C1EF3F64
:107ED900F0020E0C180D100E100F10D8A477EF3FFA
:107EE900F079EF3FF087EF3FF0020E026E040E01CA
:107EF9006EBA0EE82EFED7012EFCD7022EFAD70055
:107F0900D0C1EF3FF0030E0C180D100E100F10D852
:107F1900A491EF3FF093EF3FF0A1EF3FF0030E0282
:107F29006E080E016E770EE82EFED7012EFCD702E1
:107F39002EFAD700F0C1EF3FF0040E0C180D100E09
:107F4900100F10D8A4ABEF3FF0ADEF3FF0C1EF3FFA
:107F5900F0050E026E0F0E016EF10EE82EFED7012E
:107F69002EFCD7022EFAD700F0C1EF3FF0C1EF3F48
:107F7900F0C1EF3FF0C1EF3FF081BCC6EF3FF0C861
:107F8900EF3FF0EDEF3FF0820E016EDE0EE82EFEC0
:107F9900D7012EFCD7010E0C26000E0D220E220F42
:107FA90022050E0C180D100E100F10D8A4DFEF3F8C
:107FB900F0E1EF3FF0EDEF3FF0010E0C6E000E0D1A
:107FC9006E000E0E6E000E0F6EEDEF3FF0EDEF3FFF
:107FD900F0044A052A05BEFBEF3FF0055009E1050B
:107FE9000E045CD8A0FBEF3FF0FDEF3FF02DEF3F13
:077FF900F0FFEF3FF0120062
:020000040020DA
:08000000FFFFFFFFFFFFFFFF00
:020000040030CA
:0E000000000C181EFF0181FF0FC00FE00F4023
:00000001FF
