:020000040000FA
:1000000023EF00F0046A036EE86A0306045AD8A0DE
:1000100020EF00F0030E026EE50E02D8F5D7026A5B
:10002000F70F016EFE0E04E300D000D00126D8A029
:100030000206FCE2040001A002D000D000D01200B1
:10004000000104001200936A816ABF0E816E030EE4
:10005000046EE80ED8DF060E816E030E046EE80E05
:10006000D2DF5B0E816E030E046EE80ECCDF4F0E06
:10007000816E030E046EE80EC6DF660E816E030EFF
:10008000046EE80EC0DF6D0E816E030E046EE80E86
:10009000BADF7D0E816E030E046EE80EB4DF070E2C
:1000A000816E030E046EE80EAEDF7F0E816E030ECE
:1000B000046EE80EA8DF670E816E030E046EE80E74
:0800C000A2DFC3D70300FED745
:020000040030CA
:08000000E43EFFF3FFF99BFF52
:00000001FF
