:020000040000FA
:1000000041EF00F0046A036EE86A0306045AD8A0C0
:100010003EEF00F0030E026EE50E02D8F5D7026A3D
:10002000F70F016EFE0E04E300D000D00126D8A029
:100030000206FCE2040001A002D000D000D01200B1
:1000400003500702F3CF05F0F4CF06F00450080286
:10005000F3CF01F0F4CF02F00702F3500626F4507C
:100060000122E86A022203500802F3500626F450E7
:100070000122E86A022205503EEF00F00001040070
:100080001200936A816A010E1A6E1AC081FF010E76
:10009000046EF40EB8DF1AC007F0086A020E036E91
:1000A000046ACEDF1A6E1A2AD8A0EFD7010E1A6E94
:0600B000EAD70300FED7B1
:020000040030CA
:08000000E43EFFF3FFF99BFF52
:00000001FF
