:020000040000FA
:1000000024EF00F0046A036EE86A0306045AD8A0DD
:1000100021EF00F0030E026EE40E02D8F5D7026A5B
:10002000F50F016EFE0E04E300D004000126FDE290
:10003000000001260206F9E201A002D000D0000073
:100040001200000104001200936A816A816A010EA5
:10005000046EF40ED8DF010E816E010E046EF40EF4
:10006000D2DF020E816E010E046EF40ECCDF040EA0
:10007000816E010E046EF40EC6DF080E816E010E55
:10008000046EF40EC0DF100E816E010E046EF40ECD
:10009000BADF200E816E010E046EF40EB4DF400E46
:1000A000816E010E046EF40EAEDF800E816E010EC5
:0C00B000046EF40EA8DFCAD70300FED7D0
:020000040030CA
:08000000E43EFFF3FFF99BFF52
:00000001FF
